:10000000000001203D020000950200009702000060
:10001000990200009B0200009D0200000000000009
:100020000000000000000000000000009F0200002F
:10003000A102000000000000A3020000A5020000D1
:10004000A9020000AB0200000D0D0000F91800002D
:1000500009190000B3020000B5020000B702000059
:10006000B9020000BB020000BD020000BF02000098
:10007000C1020000C3020000C5020000C702000068
:10008000C9020000CB020000CD020000CF02000038
:10009000D1020000D3020000D5020000D702000008
:1000A000D9020000DB020000DD020000DF020000D8
:1000B000E1020000E3020000A7020000A702000026
:1000C000E5020000E7020000E9020000EB02000088
:0C00D000ED020000EF020000F102000051
:1000DC00364937480A1A02D0072291438D463549D2
:1000EC0035480A1A06D00722914381F30988022267
:1000FC0082F3148831483249324A00F045F83248CC
:10010C003249334A00F040F832483349334A00F060
:10011C003BF833483349344A00F036F83348344915
:10012C00344A00F031F834483449354A00F02CF8A0
:10013C0034483549354A00F027F83548354900220E
:10014C0000F02DF834483549002200F028F83448E6
:10015C003449091A082903DB0022026004300160CB
:10016C00314A90471F482049884205D00268043024
:10017C0003B4904703BCF7E700208646EC4600200A
:10018C0000212A4A9047FEE7884207D0521A05D030
:10019C00037801300B700131013AF9D17047884274
:1001AC0002D002700130FAE7704700000000012015
:1001BC0000E000200000012000000120082A0000BF
:1001CC000000002028000020F4020000F4020000CF
:1001DC00A0280000082A00000000002000000020D9
:1001EC00A0280000A0280000A0280000A0280000E3
:1001FC00A0280000A0280000A0280000A0280000D3
:10020C00082A0000302A00002800002028000020C6
:10021C002800002044030020440300204403002055
:10022C004403002044230020610200000908000060
:10023C000F484FF00701884385460E4880470E480B
:10024C00016841F470010160BFF34F8FBFF36F8FF2
:10025C00FFF73EBF09480A490A4A884207D0521A9A
:10026C0005D0037801300B700131013AF9D1704798
:10027C00000001208D1D000088ED00E0A02800008A
:10028C000000002000000020FEE7FEE7FEE7FEE78E
:10029C00FEE7FEE7FEE7FEE7FEE7FEE7FEE7FEE72A
:1002AC00FEE7FEE7FEE7FEE7FEE7FEE7FEE7FEE71A
:1002BC00FEE7FEE7FEE7FEE7FEE7FEE7FEE7FEE70A
:1002CC00FEE7FEE7FEE7FEE7FEE7FEE7FEE7FEE7FA
:1002DC00FEE7FEE7FEE7FEE7FEE7FEE7FEE7FEE7EA
:0802EC00FEE7FEE7FEE700BF9C
:1002F400704770470378022B02D1406800F01EBBA0
:10030400012BFAD0704700000378012B7AD002D376
:10031400022B7CD070470379012B58D13E4B1B78BC
:10032400112B11D84FF0A0424FF40031C2F8081538
:100334004FF48021C2F808154FF40021C2F80815C3
:100344004FF48011C2F80815A3F112022A2A11D819
:100354004FF0A0424FF40031C2F80C154FF4802145
:10036400C2F808154FF40021C2F808154FF48011A3
:10037400C2F80815A3F13D024F2A11D84FF0A0424C
:100384004FF40031C2F80C154FF48021C2F80C155B
:100394004FF40021C2F808154FF48011C2F8081573
:1003A40003F17302D2B2452A17D84FF0A0434FF499
:1003B4000032C3F80C254FF48022C3F80C254FF407
:1003C4000022C3F80C254FF48012C3F80825134A01
:1003D40001231370124A13707047D22BF7D94FF0D0
:1003E400A0434FF40032C3F80C254FF48022C3F825
:1003F4000C254FF40022C3F80C254FF48012C3F8E7
:100404000C25E4E7074B0848197801F025BE054B95
:1004140006481978F9E700BF280000202F000020C3
:10042400300000202E0000206529000087290000EC
:100434001FB510220021684601F03EFE032104226C
:100444004FF0CC738DE80E0002238DF80C30074A70
:1004540007480023694601F045F908B100F06EFA37
:10046400044801F0D1FA05B05DF804FB0D03000067
:1004740000000020040000201FB581238DF80C30FB
:10048400B64CB748DB238DF80D300023237003AA44
:1004940000933921022301F009FC2378002BFCD0BE
:1004A40083238DF80C30F6238DF80D300023237050
:1004B40003AA009339210223A94801F0F7FB23780A
:1004C400002BFCD09D238DF80C30002323708DF875
:1004D4000D30009303AA02233921A14801F0E6FB61
:1004E4002378002BFCD09E238DF80C30002323703E
:1004F4008DF80D30009303AA02233921984801F0A6
:10050400D5FB2378002BFCD08D238DF80C30602391
:100514008DF80D300023237003AA009339210223A0
:100524008F4801F0C3FB2378002BFCD08F238DF878
:100534000C3040238DF80D300023237003AA009360
:1005440039210223864801F0B1FB2378002BFCD02B
:1005540090238DF80C3001238DF80D300023237087
:1005640003AA0093392102237D4801F09FFB2378DD
:10057400002BFCD09D238DF80C30002323708DF8C4
:100584000D30009303AA02233921754801F08EFB34
:100594002378002BFCD09E238DF80C30002323708D
:1005A4008DF80D30009303AA022339216C4801F021
:1005B4007DFB2378002BFCD09F238DF80C30002387
:1005C40023708DF80D30009303AA02233921644867
:1005D40001F06CFB2378002BFCD0A0238DF80C30A9
:1005E40028238DF80D300023237003AA00933921AA
:1005F40002235B4801F05AFB2378002BFCD0A12393
:100604008DF80C301E238DF80D300023237003AABF
:10061400009339210223524801F048FB2378002B30
:10062400FCD0A2238DF80C3040238DF80D3000232C
:10063400237003AA009339210223494801F036FBB1
:100644002378002BFCD0A3238DF80C3001238DF8E4
:100654000D300023237003AA00933921022340485C
:1006640001F024FB2378002BFCD0A4238DF80C305C
:10067400002323708DF80D30009303AA022339213F
:10068400374801F013FB2378002BFCD0A9238DF805
:100694000C30002323708DF80D30009303AA02233D
:1006A40039212F4801F002FB2C4A14461378002B01
:1006B400FCD0A7238DF80C30002313708DF80D3077
:1006C400009303AA02233921254801F0EFFA237885
:1006D400002BFCD0A5238DF80C30002323708DF85B
:1006E4000D30009303AA022339211D4801F0DEFADC
:1006F4002378002BFCD0A6238DF80C30C9238DF869
:100704000D300023237003AA0093392102231448D7
:1007140001F0CCFA2378002BFCD0AA238DF80C30FE
:10072400002323708DF80D30009303AA022339218E
:100734000B4801F0BBFA2378002BFCD0AB238DF8D7
:100744000C30002323708DF80D30009303AA02238C
:100754003921034801F0AAFA04E000BF3000002068
:10076400040000202378002BFCD080238DF80C306B
:1007740005238DF80D300023237003AA009339213B
:1007840002231E4801F092FA08B100F0D7F823784A
:10079400002BFCD08E238DF80C3087238DF80D3080
:1007A4000023237003AA009339210223134801F084
:1007B4007DFA2378002BFCD004AA922302F8053D8D
:1007C40000232370392100930C48012301F06EFAB1
:1007D4002378002BFCD0002323700DF10A0201239F
:1007E4003921064801F07DFA2378002BFCD09DF8CE
:1007F4000A10034801F030FC04B010BD04000020CE
:10080400B82800002DE9F043404D0FCD8DB006AC63
:100814000FC495E803003E4B3E4A02934FF48073A5
:1008240084E803000393049205933B4A072302A937
:1008340006A800F059F908B100F080F84FF0A04480
:1008440003234FF40032C4F84437C4F808254FF4A6
:100854008022C4F84837C4F808254FF40022C4F8AD
:100864004C37C4F80825C4F850374FF48013C4F843
:100874000835FFF7DDFDFFF7FFFD2848284D01F09F
:10088400EBFB284B1B784BB32748284EDFF8A88096
:1008940001F0E2FB3746642445F001094FF47A4045
:1008A400C847013CFAD19C2334708DF80830347069
:1008B4000123009402AA3921404601F0F7F93B785C
:1008C400002BFCD000233B70194A012339214046F8
:1008D40001F007FA3B78002BFCD0DCE7154801F067
:1008E400BBFB45F00105D4F80435DA4302F40022D9
:1008F40003F40023C4F808254FF4FA76C4F80C3541
:100904004FF47A40A847013EFAD1ECE7A028000052
:100914003100002031010020F9020000D628000037
:10092400D02800002F000020FE2800003000002006
:100934002800002010290000040000201FB5002119
:10094400039001AA44F201000191029100F004F81D
:1009540005B05DF804FB000072B6094B1B68DB07A9
:1009640000D500BEBFF34F8F0649074BCA6802F497
:10097400E0621343CB60BFF34F8F00BFFDE700BFBE
:10098400F0ED00E000ED00E00400FA0549B152B1D9
:10099400531E1A4007D1826001608380C2601046F2
:1009A40070470E2070470920704710B58468C268EC
:1009B4008388121B934208D3C26813400268D1543F
:1009C400C3680133C360002010BD042010BD8268D9
:1009D400C3689A420AD08268838813400268D35C51
:1009E4000B708368013383600020704705207047D3
:1009F4000648074A03780749D35C012213B104303F
:100A040000F0D6BD0C3000F0A7BB00BF10000020E2
:100A14006C0200205C0200200648074A037807495C
:100A2400D35C012213B1043000F070BD0C3000F02F
:100A34003BBB00BF100000206C0200205D020020C0
:100A440037B50578012D04D035D3022D28D003B055
:100A540030BD43681F4C19782046FFF7A6FF78B1D4
:100A64001D4B01908DF800501B6868469847A1689B
:100A7400E368A2885B1A9A420ED3FFF7B9FFE6E750
:100A8400A268E3689A42F2D002AB134A03F8080D55
:100A9400126818469047EAE7104B01221A70D6E70D
:100AA400C36801938DF80050FFF7A2FF0A4B1B683F
:100AB40068469847CBE70A490A48FFF788FF10B908
:100AC400FFF7AAFFC3E702A8032300F8083D024B7F
:100AD4001B68EEE7380200203402002048020020A0
:100AE4005D0200204C020020F0B51F46234B89B064
:100AF40006461A600C4600293DD08A8820480968B9
:100B0400FFF744FF002834D1A289A1681D48FFF7EC
:100B14003DFF00282DD11C4D0FCD6C460FC495E828
:100B24000F0084E80F0073690693337C174A184852
:100B34008DF81C70003318BF01238DF81430737CBA
:100B4400002B14BF0E2300238DF81530F368029395
:100B5400B36803933368019369467368009300F0A4
:100B640095F830B90B4B18703368013301D0FFF797
:100B74003FFF09B0F0BD0720FBE700BF34020020AF
:100B8400380200204C020020A8290000450A000079
:100B9400100000204802002010B501460E48FFF75F
:100BA40004FF0446A8B90D480D4A0378D35C63B129
:100BB400043000F0F1FC60B90A490748FFF707FF69
:100BC40038B9BDE81040FFF727BF0C3000F0B8FA81
:100BD400F1E7204610BD00BF4C02002010000020A9
:100BE4006C0200205D02002072B6024A13680133D1
:100BF4001360704760020020034A1368013B1360CE
:100C040003B962B6704700BF60020020FFF7ECBF73
:100C1400FFF7F2BF10B50446C0B2FFF7BDFF204690
:100C240010BD00001FB503788DF8003043680193B0
:100C3400037A8DF80830C3680393054A054B684668
:100C440053F8213052F82110984705B05DF804FBA1
:100C540064020020680200201FB503788DF800307C
:100C64004368019383688DF80830C3680393054A89
:100C7400054B684653F8213052F82110984705B0C7
:100C84005DF804FB6402002068020020F0B5194BF3
:100C9400067891F81DC043F82620174B96460A693A
:100CA40043F82620154B03F806C00C4607460FCC24
:100CB40089B06D460FC594E80F0085E80F000496CF
:100CC400BCF1000F0AD0BEF1000F0D4A694608BFFF
:100CD4000022381D00F050FB09B0F0BDBEF1000F3A
:100CE400084A694608BF002207F10C0000F01AF90F
:100CF400F2E700BF68020020640200206C020020BA
:100D0400290C00005D0C0000014B1B68184700BF54
:100D14007002002038B50A4B98420D460CD10020D1
:100D2400FFF774FF074B1C7914B901221D601A7177
:100D34000020FFF76DFF0CB9002038BD112038BD2D
:100D440000200040700200200023435082B043582A
:100D54000193019B02B070470A4610B54FF48E719F
:100D6400FFF7F2FF136A9168C95C136A01331362D7
:100D7400C0F81C1510BD024608B54FF49271006806
:100D8400FFF7E2FF4FF484711068FFF7DDFF13688B
:100D940001221A6008BD8B690A4610B54FF48471AC
:100DA40023B9FFF7D1FFD0F8183510BDFFF7CCFFFA
:100DB400536AD168D0F81805C854536A0133536292
:100DC40010BD00001FB501238DF80030044B0290C4
:100DD4000191684693E80600904705B05DF804FB6E
:100DE4007802002030B54D4AD2F8043313F4007F62
:100DF40085B015464FD0D2F82431002B4BD04FF498
:100E040092711046FFF7A0FF4FF40173C2F8083344
:100E1400434B93F8291009B9012151603F4902223B
:100E24008DF80020D1F88024C1F8802403929A69B7
:100E34000292DA68019200229A61DA61684693E8C4
:100E4400060090473548D0F81C315BB134490A6A32
:100E54004B699A420A464CD291F82830002B48D16B
:100E6400FFF77AFF2D4AD2F8443193B14FF4A271BF
:100E74001046FFF769FF2A4B93F8291009B10121A5
:100E840011609A692AB100229A61586AD968FFF7F9
:100E940099FF05B030BDD5F804335B07D2D5D5F83A
:100EA4000831002BCED01E4C1C482146FFF773FF9F
:100EB400636AA2699A422346C4D1E26952B12369A2
:100EC400E168E3600023606AA261E3616362FFF7A3
:100ED40079FFB7E794F829200AB901226A600F4A1A
:100EE4004FF40171C2F8081300229A61586AD96854
:100EF400EDE74FF48E710948FFF726FF5169002989
:100F0400B0D00023029191688DF8003001915361B3
:100F1400684692E80A009847A4E700BF0020004012
:100F2400780200202DE9F8435B4B047991462C228A
:100F340002FB0432064692F82A200D469846002AFF
:100F440040F0A58055490068FFF7E4FE07460028F5
:100F540040F09F8029683368481C0BD04FF0A040B4
:100F640001228A40C0F8082501F5E0724FF0030E13
:100F740040F822E06868421C1FBF00F5E0724FF0A1
:100F8400A04E4FF0000C4EF822C0AA6995F814E068
:100F9400C3F824256A7DBEF1010F4EEA0202C3F8AC
:100FA4006C25C3F81405C3F80C151DD1AA68511C8F
:100FB4001FBF02F5E0714FF0A0404FF0000E40F863
:100FC40021E0E968481C0BD04FF0A04E0120884076
:100FD400CEF8080501F5E0704FF0030C4EF820C080
:100FE400C3F80815C3F810252C23634308EB030248
:100FF400C2F804902A6948F80320B9F1000F33D0ED
:101004004FF48E7130682D7FFFF79EFE30684FF4E9
:10101400A271FFF799FE3268214BC2F80433120B18
:1010240053B2002BA8BF03F160404FEA53134FEAB9
:101034004511BABF1B4802F00F0500F561404FEAA5
:101044008303B4BFC9B2C9B203F16043B4BF41550D
:1010540080F8001303F5614302F01F02012101FA35
:1010640002F2C3F880211A6033680422C3F8002511
:101074002C2303FB048300229A61DA6183F829207C
:101084005A61012283F82A203846BDE8F8830827EC
:10109400FAE71127F8E700BF78020020E90D000005
:1010A4008000020014ED00E02DE9F843234F067997
:1010B4004FF02C0909FB067480466569002D37D171
:1010C4006261A16025624FF48E71006884F8285033
:1010D400FFF73AFED8F80000012383602146FFF7AA
:1010E4003BFE6368A14633BBD8F80050226A6369AB
:1010F4009A4212D3D8F80030D3F81C21002AFBD02E
:101104000122DA6000202C2303FB0676002373619E
:10111400BDE8F88394F8283043B9D5F81C31002B86
:10112400F8D049462846FFF717FEDFE70F20EAE725
:101134001120BDE8F8832846BDE8F8837802002032
:101144000379044A2C2101FB03235869003018BF9A
:1011540001207047780200202DE9F8433D4D0779BE
:101164002C2303FB075306465C6824B103684FF441
:101174000170C3F808032C2303FB0753986940B399
:10118400D869002862D024B133684FF40172C3F8DF
:1011940004231120BDE8F883002A44D1002C42D155
:1011A4004146FFF7F8FDD9F82430D9F818209A42BF
:1011B4002DD8224637E05A6045E033684FF4017277
:1011C400C3F804233FE00320BDE8F8830F20BDE803
:1011D400F8839A61D9605862D8612C2404FB0753C0
:1011E40093F829301BB910B93046FFF7C4FD04FB4E
:1011F40007535B68002BE0D14FF4A2713068FFF70E
:10120400A3FD4FF02C0907FB045809FB075930686C
:10121400D0F82421D0F80831D0F84441002BBBD1B8
:101224000CB9002AF3D02C2303FB07550023AB6130
:10123400002AC8D1002CC9D195F82910336801229D
:101244000029B8D01A600020BDE8F8831961DA617A
:101254000120C2E7780200200023435082B04358A3
:101264000193019B02B070471FB501238DF8003034
:10127400054B8DF808000191684693E806009047F5
:1012840005B05DF804FB00BFA40200207FB5384A16
:10129400D2F82461002E49D010464FF49271FFF722
:1012A400DBFF02238DF80030D2F88034C2F880349A
:1012B4000393D2F83C358DF808302E4BDA6801924E
:1012C40000229A61DA61684693E806009047284A4A
:1012D400D2F8443173B14FF4A2711046FFF7BCFF4A
:1012E400244B996931B100219961D2F83C05D96840
:1012F400FFF7BAFF1E4AD2F82031ABB14FF4907118
:101304001046FFF7A9FF1B4B596969B1D2F84C1578
:101314008DF80810002299688DF8002001915A6117
:10132400684693E80600904704B070BDD2F81031C7
:10133400002BCCD04FF488711046FFF78DFF0D4B76
:10134400D2F83C0599698842C1D1DC696CB1D2F804
:101354000052D96825F02005C2F800521A699C6130
:10136400DA60DE61FFF780FFB1E79C61D968F9E7D5
:1013740000200040A40200202DE9F8435F4B0679C9
:101384009146242202FB0632044692F820200D46A0
:101394009846002A40F0AD8059490068FFF7BAFC2E
:1013A4000746002840F0A78029682368481C0BD012
:1013B4004FF0A04001228A40C0F8082501F5E072F0
:1013C4004FF0030E40F822E06868421C1FBF00F58E
:1013D400E0724FF0A04E4FF0000C4EF822C0AA6904
:1013E40095F814E0C3F824256A7DBEF1010F4EEA96
:1013F4000202C3F86C25C3F80C15C3F814051DD1FB
:10140400AA68511C1FBF02F5E0714FF0A0404FF0D5
:10141400000E40F821E0E968481C0BD04FF0A04EC4
:1014240001208840CEF8080501F5E0704FF0030C68
:101434004EF820C0C3F80815C3F8102524237343BD
:1014440008EB0302C2F804902A6948F80320B9F1B2
:10145400000F3DD04FF4887120682D7FFFF7FCFE0C
:101464004FF490712068FFF7F7FE4FF492712068F3
:10147400FFF7F2FE20684FF4A271FFF7EDFE226839
:10148400204BC2F80433120B53B2002BA8BF03F154
:1014940060404FEA53134FEA4511BABF1A4802F0AD
:1014A4000F0500F561404FEA8303B4BFC9B2C9B266
:1014B40003F16043B4BF415580F8001303F5614361
:1014C40002F01F02012101FA02F2C3F880211A601E
:1014D40023680822C3F80025242303FB0683002283
:1014E4009A61DA615A61012283F820203846BDE806
:1014F400F8830827FAE71127F8E700BFA4020020C1
:10150400911200001003020014ED00E001F06043AA
:10151400B3F1005F2DE9F041074632D11D4B067946
:10152400242505FB063598466C696CBB6A61A96085
:1015340000684FF49071FFF78FFE4FF4AC71386878
:10154400FFF78AFE3B686A69A968C3F84415C3F8C3
:10155400482501229A606A68CAB9D3F82011D3F8E1
:10156400582149B9002AF8D00F20242303FB06860A
:1015740000237361BDE8F081002A14BF0F2000200E
:10158400F3E71020BDE8F0811120BDE8F08120468A
:10159400BDE8F081A40200200379044A242101FB60
:1015A40003235869003018BF01207047A4020020AB
:1015B400F8B501F06043B3F1005F04460F4628D14B
:1015C4000379314E242101FB0361486820B121686D
:1015D4004FF40475C1F80853242101FB03639D698A
:1015E400CDB1D96900294AD020B123684FF40472DF
:1015F400C3F804231120F8BDD3F8002242F02002DE
:10160400C3F800221DE04FF40472C3F80423002041
:10161400F8BD1020F8BD9A61DF60DD614FF4887178
:101624002068FFF719FE4FF4A2712068FFF714FE3B
:101634002368C3F83475C3F83825002DDCD10122A2
:101644001A602279242101FB026149680029DAD158
:10165400D3F81041D3F84411D3F8240114B909B9CB
:101664000028F5D0242303FB02660023984214BF0C
:10167400032018469942B36118BF0F20F8BD1F61BB
:10168400DA610125CAE700BFA40200201FB5037870
:101694008DF8003003798DF8043043798DF80530E6
:1016A40083688DF80630C3688DF8073003690293A8
:1016B40043690393054A064B684653F8213052F8B0
:1016C4002110984705B05DF804FB00BFC802002054
:1016D400D0020020024B4FF4807043F001031847FE
:1016E400D02900002DE9F047924690F80080304A56
:1016F40042F828A02F4A42F828304B7B81460C46FA
:10170400BBB30868496882008B0002F1A04203F170
:10171400A04340F20C65C2F800570126C3F80057F5
:101724004FF0A04506FA00F006FA01F1C5F80805E5
:10173400C5F8081540F20D61C2F80017C3F8001788
:10174400FFF7C8FF0027D5F81025636822FA03F3D2
:10175400DB071BD56FB1636801254FF0A04605FA7E
:1017640003F3C6F80C35FFF7B5FF63689D40C6F870
:101774000855BAF1000F43460F4A214609F1040007
:1017840008BF0022BDE8F04700F0C4B8236806FA99
:1017940003F3C5F80C35FFF79DFF236806FA03F33E
:1017A400C5F808350137FFF795FF092FCBD1D2E7EC
:1017B400D0020020C80200209116000000234350EC
:1017C40082B043580193019B02B07047F0B5D0F842
:1017D400243187B004460D469BB14FF49271FFF754
:1017E400EDFFD0F8043163B9AB68C0F808330223C5
:1017F400AB60AB68C0F8043301230362436107B0F4
:10180400F0BDD4F80431002B35D04FF4827120465A
:1018140005F10C07FFF7D2FF0FCF01AE0FC63B68EF
:10182400336095F82E3073B12B7B012B0CBFD4F8A9
:101834003C25D4F84C250292022B0CBFD4F83C353D
:10184400D4F84C3503934FF4B0712046FFF7B6FF3C
:101854004FF4AE712046FFF7B1FF95F8303013B165
:1018640095F82E30CBB10023C4F80032AB60204B86
:10187400C4F8083311E04FF4A4712046FFF79EFF2B
:101884002B7BEBB905F10C070FCF01AE0FC63B68FC
:10189400336095F83030002BE6D0D4F8C434C4F863
:1018A400C4349A071ED501238DF8003095F83030E2
:1018B4000BB985F82F302B686968684698479EE70E
:1018C4004FF40073C4F8003240F20223AB6003F11A
:1018D400CE73C4F80833AB68C4F804330123A3609F
:1018E40023628CE713F0040318BF0223DCE700BF74
:1018F40002029C0101490248FFF768BFD802002098
:101904000030004002494FF04020FFF75FBF00BFA6
:101914000C0300202DE9F84F0479384D4FF03408BA
:1019240008FB04F805EB08069B4696F82D30814623
:101934000F469246002B5BD1314B006853F82410BC
:10194400FFF7E8F9002856D139687B7B86F83230F6
:1019540001F5E0724FF0A043B060C6F804B086F819
:101964002F0086F8300040F20C6645F808A043F8D2
:1019740022607A6802F5E07E43F82E60D9F80030E0
:10198400C3F80815C3F80C25BA68C3F82425BAF1BE
:10199400000F25D01A0B53B2002B397BB4BF194E5C
:1019A40003F160464FEA53134FEA4111B4BF02F00A
:1019B4000F0706F561464FEA8303B4BFC9B2C9B243
:1019C40003F16043B4BFF15586F8001303F5614396
:1019D40002F01F02012101FA02F2C3F880211A6009
:1019E400342303FB0454012384F82D30BDE8F88F1D
:1019F4000820BDE8F88F1120BDE8F88FD802002038
:101A0400D829000014ED00E0026803790621C2F829
:101A14000015044A342101FB0323022283F82D20FC
:101A2400704700BFD80200202DE9F843CB6803F0CB
:101A34006043B3F1005F0D46904603D01022104678
:101A4400BDE8F8830779964E0468964BC4F80833CA
:101A54004FF0340E0EFB076E9EF82F302BB1DEF8DC
:101A64000830C4F804331122E9E712F0140F0CBF54
:101A7400012300238EF82F308946B9E80F000EF1B8
:101A84000C0CACE80F00D9F80030CCF80030C8F3E7
:101A940000138EF830306B78C4F888354FF48271B7
:101AA4002046FFF78BFE4FF492712046FFF786FE27
:101AB40018F0010318BF0123C4F8503518F00203CD
:101AC40018BF0123C4F840352B78032B00F2C780DC
:101AD400DFE803F086AF6A022B6903F06043B3F1D9
:101AE400005FABD14FF48073EA68C4F800326B68CE
:101AF400C4F844254FF4A871C4F848352046FFF7CC
:101B04005DFE4FF4B0712046FFF758FE4FF4A47108
:101B14002046FFF753FE01232362A360D4F850311B
:101B2400002BFBD04FF4A8712046FFF747FEAB68AB
:101B34002A69C4F84425C4F848355B4A342303FBB6
:101B440007639A604FF482730821002218F0080F8B
:101B540004D1287803281CBF012060503421794324
:101B64007018715800297FD1012523441968002970
:101B740000F087803421D4F8C434C4F8C43401FBA1
:101B84000766002186F82F10002B3FF458AF13F09E
:101B9400020F48F2012208BF032213F0040F48F297
:101BA400022318BF1A464AE76B68EA68C4F844255A
:101BB400C4F848352B6903F06042B2F1005F7FF44A
:101BC4003DAFAA68C4F834354FF48453C4F83825BB
:101BD400C4F80032342303FB076340F20222B0E767
:101BE4006B68EA68C4F8442518F0200FC4F8483537
:101BF4004FF0340311D003FB07634FF48072C4F831
:101C04000022294A9A604FF4A4712046FFF7D6FDBA
:101C14004FF4A4730122226296E74FF4007203FB8F
:101C24000763C4F8002240F202229A604FF48273E0
:101C3400F0E76B68EA68C4F83425C4F838354FF423
:101C44008053C4F80032342303FB076340F20222BA
:101C54009A600123236200214FF4827375E74FF4E5
:101C640082730821072271E718F0040F1CBF4FF498
:101C740000738360342303FB0766B368C4F804333A
:101C8400DDE6D4F8241100293FF470AF4FF49271CB
:101C94002046FFF793FD25624FF48273656164E784
:101CA400D802002002029C0100020400F0B587B0B3
:101CB40004460F4615460021142201A81E4600F0D2
:101CC400FBF99DF830308DF80570002B14BF2022ED
:101CD400002201A9204602960495FFF7A5FE07B04D
:101CE400F0BDF0B587B004460F4615460021142216
:101CF40001A81E4600F0E0F90123002201A92046B4
:101D04008DF804308DF8057002960495FFF78CFE6B
:101D140007B0F0BD094B1B78062B0CD1084B1B6890
:101D24001A0708D1074B186800F0F000A0F130033F
:101D34005842584170470020704700BFE00F00F040
:101D4400E40F00F0E80F00F00C4B1B78062B10D1C9
:101D54000B4B1B681A070CD10A4B186800F0F003F0
:101D6400302B08D000F0E000A0F140035842584165
:101D74007047002070470120704700BFE00F00F05B
:101D8400E40F00F0E80F00F008B5FFF7DDFF28B11D
:101D94007F4B804A1B68C3F304231360FFF7BAFF29
:101DA40010B17D4B7D4A1A60FFF7CEFF28B17C4B02
:101DB4007C4A1B68C3F342331360FFF7ABFF20B1C7
:101DC400794AD36823F08073D360FFF7BDFF40B135
:101DD4004FF080430022C3F80C21C3F81021C3F84C
:101DE4003825FFF797FF10B1704B03221A60FFF7F5
:101DF40091FF40B16E4B05221A6001229A670022BE
:101E04009A603F225A606B4B1B78062B09D16A4BB0
:101E14001B68190705D1694B1B6803F0F003502BAD
:101E240067D0FFF791FF28B1654B664A1B6803F042
:101E34004F031360FFF788FF48B14FF08043D3F896
:101E44000024D20744BF6FF00102C3F800245E4BA4
:101E54001B68062B04D15D4B1B68062B00F0918098
:101E64005B4AD2F8883043F47003C2F88830BFF379
:101E74004F8FBFF36F8F4FF01023D3F80022002A47
:101E840003DBD3F80432002B2FDA524B0122C3F8C0
:101E94000425D3F80024002AFBD04FF0102215218A
:101EA400C2F80012D3F80024002AFBD04FF010230C
:101EB4001522C3F80422474B1A46D3F8001400290C
:101EC400FBD00021C3F80415D2F80034002BFBD05A
:101ED400BFF34F8F3E49404BCA6802F4E06213439C
:101EE400CB60BFF34F8F00BFFDE73C4B3C4A1A6009
:101EF40008BD4FF080523B4BD2F80414C3F82015B0
:101F0400D2F80814C3F82415D2F80C14C3F8281511
:101F1400D2F81014C3F82C15D2F81414C3F83015E1
:101F2400D2F81814C3F83415D2F81C14C3F84015A9
:101F3400D2F82014C3F84415D2F82414C3F8481571
:101F4400D2F82814C3F84C15D2F82C14C3F8501541
:101F5400D2F83014C3F85415D2F83414C3F8601509
:101F6400D2F83814C3F86415D2F83C14C3F86815D1
:101F7400D2F84014C3F86C15D2F84424C3F8702581
:101F84004FE7194A136843F48063136068E700BF9E
:101F9400240300104035014074C007400DF0ADBA71
:101FA400440200103C050040F0ED00E0A0050040B4
:101FB40010560040E00F00F0E40F00F0E80F00F0CE
:101FC40058020010E40E00403001001034010010EB
:101FD40000ED00E000E001400400FA0524000020C8
:101FE4000090D00300C000403C17004038B50446C0
:101FF4000846A16841B1236862685D1C954208BF28
:102004000020934208D2C854E3682BB12168626867
:10201400914201D22146984723680133236038BD99
:1020240070B54C1E09D41646C5B229463046FFF792
:10203400DDFF013CB4F1FF3FF7D170BD10F0100F8C
:1020440009D108B500F40070002814BF3020202006
:10205400FFF7E6FF08BD70470FB410B586B008ABB4
:1020640053F8044B0593002303936FF0004302934A
:10207400084B0493FEF73CF9059A214601A800F0A9
:102084007FF80446FEF735F9204606B0BDE8104057
:1020940004B07047190C000003784BB151B10144EE
:1020A400034613F8012F0AB18B42FAD1181A70476C
:1020B4000346FBE70346F9E78446002A2DD010F0D7
:1020C400030F04D000F8011B013A26D0F7E7C9B288
:1020D40041EA012141EA0141202A12D3A2F120025E
:1020E4002DE9F0030B460C460D460E460F46884676
:1020F4008946A0E8FA03203AFBD2BDE8F003203277
:102104000BD0042A05D340F8041B043A05D0042A52
:10211400F9D200F8011B013AFBD16046704700BFB9
:1021240000F1010110F0030F11D010F8012B002A67
:1021340023D010F0030F0AD010F8012B002A1CD072
:1021440010F0030F03D010F8012B002A15D02DE94D
:1021540070004FF001324FF0803350F8044BA4EB81
:10216400020525EA04051D4000D1F6E7A0F10400AC
:1021740070BC10F8012B002AFBD1A0EB01007047C2
:102184002DE9F04F89B00746884603920023036087
:10219400DFF818A653E3002502E045F04005144695
:1021A400224612F8010BA0F120033E2B00F294808A
:1021B40001A151F823F000BF9F210000DD2200009F
:1021C400DD220000B9220000DD220000DD22000033
:1021D400DD220000BF220000DD220000DD2200001D
:1021E400DD220000CB220000DD220000D12200000D
:1021F400DD220000DD220000D7220000DD220000E5
:10220400DD220000DD220000DD220000DD220000CE
:10221400DD220000DD220000DD220000DD220000BE
:10222400DD220000DD220000DD220000DD220000AE
:10223400DD220000DD220000DD220000DD2200009E
:10224400DD220000DD220000DD220000DD2200008E
:10225400DD220000DD220000DD220000DD2200007E
:10226400DD220000DD220000DD220000DD2200006E
:10227400DD220000DD220000DD220000DD2200005E
:10228400DD220000DD220000DD220000DD2200004E
:10229400DD220000DD220000DD220000DD2200003E
:1022A400DD220000DD220000DD220000DD2200002E
:1022B400C522000045F0800571E745F400456EE74E
:1022C40045F480556BE745F0200568E745F01005B7
:1022D40065E745F4007562E72A2827D0A0F13003AA
:1022E400DBB2092B88BF00230CD8002303EB830344
:1022F400303800EB430312F8010BA0F13001C9B2EE
:102304000929F3D923EAE3742E281BD00021742869
:102314003FD07A283DD06C2800F0BC804C2800F0D7
:10232400BF80682800F0CC80904635E0039B191DDF
:1023340003911B68002BBCBF5B4245F0100510786D
:10234400A21CDFE7561C10782A2819D0A0F130030C
:10235400DBB2092B88BF00210ED8002101EB8101DB
:10236400303800EB410116F8010BA0F13003DBB269
:10237400092BF3D900290ADB45F480753246C6E7F8
:10238400039B191D03911968961C5078F2E7324695
:10239400BDE702F101081078782800F28480DFE8B4
:1023A40010F06D02820082008200820082008200AE
:1023B4008200820082008200820082008200820009
:1023C40082008200820082008200820082008200F9
:1023D40082008200820082008200820082008200E9
:1023E4008200820082008200820082009D008200BE
:1023F40082008200820082008200820082008200C9
:1024040082008200820082008200820082008200B8
:1024140082008200820082008200820082008200A8
:102424008200820082008200820082008200820098
:102434008200820082008200820082008200820088
:102444008200820082008200820082008200820078
:1024540082000301820082008200820082008200E6
:102464008200820082008200A20040018200820079
:102474008200820040018200820082008200BB0050
:102484002D01EC0082008200C70082003901820025
:102494008200050102F10108107845F001057BE78F
:1024A40045F001059046BD4B1E68002E00F0C78123
:1024B40003AB0193009123462A463946B047BEE157
:1024C4001078682804D002F1010845F0040563E798
:1024D40045F0080502F1020850785DE725213846E9
:1024E400FFF784FDABE1039B1A1D03921E78013CA8
:1024F4003A4621462846FFF7A1FD31463846FFF704
:1025040075FDA94619F0100F00F099813A4621464D
:102514002020FFF785FD92E115F0080F039B03F1DE
:10252400040203921B683A6814BF1A701A6086E1A9
:10253400039B1A1D03921868994B002808BF18467C
:10254400064625F4007915F4807F12D0FFF7A4FD28
:102554000546641B3A4621464846FFF76FFD002DA9
:10256400D0D016F8011B3846FFF740FD013DF8D1E5
:10257400C8E7FFF7D5FD0546EBE7039B1A1D039259
:102584001A6805F08003002B0CBF0026232645F4AF
:1025940080750821002A00F02E8105AB4FF0000958
:1025A40005F400508C46D4E045F4005515F0800F36
:1025B40022D043F2580343F27806782818BF1E4607
:1025C40015F4807F01D025F4007515F4804F36D0C2
:1025D400039B1A1D03921A6815F0040F27D012B238
:1025E400002A29DB15F0200F40F0878005F0400316
:1025F400002B18BF20262AE00026E1E705F080031F
:10260400002B0CBF0026302615F4807FDDD025F486
:102614000075DAE715F4807F07D025F400750026ED
:10262400D3E745F480450026CFE70026CDE715F033
:10263400080F18BFD2B2D3E752422D2607E0039BFE
:102644001A1D03921A6815F0040F51D092B215F4B2
:10265400807F14BF25F400750121A0F15803202BBD
:1026640000F2C68001A050F823F000BF99250000B5
:10267400F5270000F5270000F5270000F5270000E6
:10268400F5270000F5270000F5270000F5270000D6
:10269400F5270000F5270000F52700002327000098
:1026A400F5270000F5270000F5270000F5270000B6
:1026B40023270000F5270000F5270000F527000078
:1026C400F5270000F52700000327000099250000E6
:1026D400F5270000F5270000F5270000F527000086
:1026E40023270000F5270000F527000099250000A6
:1026F40015F0080FABD0D2B2A9E72B26A7E74FF00D
:1027040000098AB305A84FF0000902F0070330332B
:1027140000F8013B09F10109D208F6D124E04FF099
:1027240000090AB34FF0000905F4004E4FF02C0CD9
:10273400934673468E4619464BE002F00F0E194934
:1027440011F80EE083F800E009F1010901331209E0
:1027540009D00028F1D002F00F0E134911F80EE051
:1027640083F800E0F0E76146A1EB090121EAE17B8F
:10277400A4EB0B04A4EB0904FF2E88BF04F1FF347F
:10278400002E7ED0013C15F4007F7DD0FF2E36D87C
:10279400F1B23846FFF72AFC38E000BF40030020BE
:1027A400002A0000E0290000F0290000CDCCCCCCA8
:1027B40008AB03EB0900AAFB0B23DB0803EB830242
:1027C400ABEB4202303200F80C2C09F101099B46B4
:1027D40063B10029ECD009F00303032BE8D108AB63
:1027E4004B4403F80CCC09F10109E1E77146BBE75E
:1027F4004FF00009B8E74FF00009B5E70024C6F32D
:1028040007213846FFF7F2FB002EC1D13A46214694
:102814002846FFF713FC3A4659463020FFF700FCE0
:10282400B9F1010F08D405AEB14419F8011D3846B9
:10283400FFF7DCFB4E45F8D115F0100F0CD108F171
:10284400010498F8001069B125293FF4A4AC384676
:10285400FFF7CCFBA046F2E73A4621462020FFF7DB
:10286400DFFBECE7BB682BB13A6879688A423CBF6E
:1028740000219954386809B0BDE8F08F4FF0FF305B
:10288400F9E715F4007FC1D13A4621462846FFF7FF
:0C289400D5FBFF2EB2D80024B6E700BF31
:1028A000080000000600000005000000070000000E
:1028B0000000000000E0D7010A0D2057686F416D4D
:1028C000493A2020252378210D0A0000000000004D
:1028D0000338FDD870470D0A415044532D3939361D
:1028E000302070726F78696D6974792066756E63D7
:1028F00074696F6E2073746172742E0D0A000A0D74
:102900002044455649434520464F554E440D0A0044
:102910002A2A2A2A2A2A2A2A2A2A2A2A2A2A2A2A17
:102920002A2A2A2A2A2A2A2A2A2A0A0D4E4F2041EE
:102930005044532D393936302044455649434520BB
:10294000464F554E44210D0A2A2A2A2A2A2A2A2A83
:102950002A2A2A2A2A2A2A2A2A2A2A2A2A2A2A2AD7
:102960002A2A0A0D004E6F20616464726573732019
:1029700041434B206F6E20616464726573733A202B
:10298000252378210D0A004E6F2064617461204177
:10299000434B206F6E20616464726573733A202527
:1029A0002378210D0A000000FFFFFFFFFFFFFFFF5C
:1029B000FFFFFFFFFFFFFFFF00000000000000001F
:1029C0000000D60107010000000000000000000028
:1029D0000338FDD870470000F918000009190000FD
:1029E0003031323334353637383961626364656685
:1029F0003031323334353637383941424344454635
:082A0000286E756C6C290000C2
:102A0800000000000030004000000000010000004D
:102A180000000000002000400000000000200040EE
:082A2800000000000090D00343
:040000030000023DBA
:00000001FF
